:03000000020AA051
:0C0AA000787FE4F6D8FD75811F020A87FC
:080AAC00000000000000000042
:0B0A3A00D3EF9400EE64809480401B1A
:100A45007518037519E8E519151970021518E519D2
:090A5500451870F2EF1F70DD1E60
:030A5E0080DA2219
:100A1000EF4E7004D2B08002C2B0ED4C7004D2B17F
:100A20008002C2B1EB4A7004D2B68002C2B6E51FA2
:0A0A3000451E7003D2B722C2B722A0
:040981008E088F0944
:0609850085080A85090B3C
:10098B00780C7C007D007BFF7A0A79AC7E007F08B7
:10099B001208D0E4F514F515850816850917E51727
:1009AB004516602AE51730E00CE51525E0240CF818
:1009BB0076000876010515E51570020514AE16AF25
:1009CB00177C007D021208F68E168F1780D08512C9
:1009DB001E85131FAB11AA10AD0FAC0EAF0DAE0CD5
:1009EB00120A107F587E02120A3AE50915097002A5
:1009FB001508E509F47003E508F47084850A088589
:020A0B000B09D5
:030A0D0002098B50
:100A610020B2047F01800C20B3047F03800520B4F1
:100A7100097F077E0012098180E620B5E37F0F7EA2
:060A81000012098180DA79
:100A8700E4F51EF51FFBFAFDFCFFFE120A10D2B4B7
:090A9700D2B5D2B2D2B3020A6159
:10080000E709F608DFFA8046E709F208DFFA803EDA
:1008100088828C83E709F0A3DFFA8032E309F608C7
:10082000DFFA8078E309F208DFFA807088828C832F
:10083000E309F0A3DFFA806489828A83E0A3F608E3
:10084000DFFA805889828A83E0A3F208DFFA804CBD
:1008500080D280FA80C680D4806980F28033801094
:1008600080A680EA809A80A880DA80E280CA8033FD
:1008700089828A83ECFAE493A3C8C582C8CCC58375
:10088000CCF0A3C8C582C8CCC583CCDFE9DEE78045
:100890000D89828A83E493A3F608DFF9ECFAA9F0C4
:1008A000EDFB2289828A83ECFAE0A3C8C582C8CC1A
:1008B000C583CCF0A3C8C582C8CCC583CCDFEADE33
:1008C000E880DB89828A83E493A3F208DFF980CC95
:1008D00088F0EF60010E4E60C388F0ED2402B4048E
:1008E0000050B9F582EB2402B4040050AF23234535
:0608F00082239008507302
:1008F600C2D5EC30E709B2D5E4C39DFDE49CFCEE1D
:1009060030E715B2D5E4C39FFFE49EFE12092CC35F
:10091600E49DFDE49CFC800312092C30D507C3E45A
:060926009FFFE49EFE228B
:10092C00BC000BBE0029EF8DF084FFADF022E4CCAF
:10093C00F875F008EF2FFFEE33FEEC33FCEE9DEC78
:10094C00984005FCEE9DFE0FD5F0E9E4CEFD22EDBE
:10095C00F8F5F0EE8420D21CFEADF075F008EF2F08
:10096C00FFED33FD4007985006D5F0F222C398FDF9
:05097C000FD5F0EA2296
:00000001FF
