:03000000020AD41D
:0C0AD400787FE4F6D8FD75811D020A90C1
:080AE00000000000000000000E
:100AB9007D197C00EF1FAA0670011E4A600CED1D0E
:0A0AC900AA0470011C4A60EC80F4DE
:010AD3002200
:100A6500EF4E7003D38001C392B0ED4C7003D38079
:100A750001C392B1EB4A7003D38001C392B6E51D61
:0B0A8500451C7003D38001C392B72210
:10098100E4F508F50920B2080509E5097002050832
:1009910020B30B74022509F509E43508F50820B4E4
:1009A1000B74042509F509E43508F50820B50B7425
:1009B100082509F509E43508F508D3E5099400E5AA
:1009C10008648094805003020A53D3E509940FE52B
:0709D1000864809480507B54
:1009D800780A7C007D007BFF7A0A79E07E007F0838
:1009E8001208D0850812850913E4F514F515E513E6
:1009F80045126030AE12AF137C007D021208F6E596
:100A08001525E0240AF8A60408A605AE12AF137C43
:100A1800007D021208F68E128F130515E51570CEAB
:100A2800051480CA0509E5097002050885101C85AA
:100A3800111DAB0FAA0EAD0DAC0CAF0BAE0A120A0E
:080A4800657F067E00120AB969
:100A50000209BBE5094508600BC2837F037E0012D3
:040A60000AB9D2837A
:010A6400226F
:100A9000751C00751D017B017A007D017C007F01C2
:100AA0007E00120A65D2B2D2B3D2B4D2B57F057E2F
:090AB00000120AB912098180F458
:10080000E709F608DFFA8046E709F208DFFA803EDA
:1008100088828C83E709F0A3DFFA8032E309F608C7
:10082000DFFA8078E309F208DFFA807088828C832F
:10083000E309F0A3DFFA806489828A83E0A3F608E3
:10084000DFFA805889828A83E0A3F208DFFA804CBD
:1008500080D280FA80C680D4806980F28033801094
:1008600080A680EA809A80A880DA80E280CA8033FD
:1008700089828A83ECFAE493A3C8C582C8CCC58375
:10088000CCF0A3C8C582C8CCC583CCDFE9DEE78045
:100890000D89828A83E493A3F608DFF9ECFAA9F0C4
:1008A000EDFB2289828A83ECFAE0A3C8C582C8CC1A
:1008B000C583CCF0A3C8C582C8CCC583CCDFEADE33
:1008C000E880DB89828A83E493A3F208DFF980CC95
:1008D00088F0EF60010E4E60C388F0ED2402B4048E
:1008E0000050B9F582EB2402B4040050AF23234535
:0608F00082239008507302
:1008F600C2D5EC30E709B2D5E4C39DFDE49CFCEE1D
:1009060030E715B2D5E4C39FFFE49EFE12092CC35F
:10091600E49DFDE49CFC800312092C30D507C3E45A
:060926009FFFE49EFE228B
:10092C00BC000BBE0029EF8DF084FFADF022E4CCAF
:10093C00F875F008EF2FFFEE33FEEC33FCEE9DEC78
:10094C00984005FCEE9DFE0FD5F0E9E4CEFD22EDBE
:10095C00F8F5F0EE8420D21CFEADF075F008EF2F08
:10096C00FFED33FD4007985006D5F0F222C398FDF9
:05097C000FD5F0EA2296
:00000001FF
